S02C0000533A5C636F653533385C70726F6A6563745C50726F6A6563745C62696E5C50726F6A6563742E61627361
S123380001234567890000000000000000000000000000000000000000000000000000004B
S11D382000000000000000000000000000000000202020202020202000008A
S1234000CF400010EF16402516403416413016404A16406E1640761640721640B3CD1770AD
S123402016418520EC1D0272FF4C02FF4C03FF1C026AC03D180B800082CD000116418518FD
S12340400B200083180B9700843DCE3830CD380616405DCE3830CD381B16405D3D3435365A
S1234060A6006A402704080220F63231303D4C00203D4D00203D793805CE3800B6380516B9
S123408040A0CD019016418586815A854F8680FC96916A008E380427067238050820DD3D52
S12340A036960084E37A3839324848841CBA38395A003DB63801164111CE38096C00B638FA
S12340C002164111CE381B6C00B63803164111CE381E6C00B63804164111CE38216C00B659
S12340E03800164111CE38246C008601164151CD0028164185CE3806164161864016417F26
S12341003D3031323334353637383941424344454636180EC40F87C34101B7C5A600333676
S123412056565656C40F87C34101B7C5A600333DCD07D01641858628164151860C16415122
S123414086061641518601164151CD00281641853D1D02684016416B3D1C02684016416B9C
S12341603DA630270516415920F73D1C0268805A01A7A7A71D026880CD00011641853D8A2A
S1154180801641513D34CE012CA70435FC0436F6303D1C
S105FFFE4000BD
S9030000FC
